S012000062745F7263705F784731332E733337E6
S21400000000100020C1050000BD050000BD05000071
S214000010BD050000BD050000BD050000BD050000D3
S214000020BD050000BD050000BD050000BD050000C3
S214000030BD05000030A3010035250100BD05000008
S214000040BD05000025720100BD050000BD050000CD
S2140000504D6A01007D720100317201004972010093
S214000060297201002D0C00002D0D0000BD050000BA
S21400007009400000BD050000BD050000BD050000EC
S214000080BD050000BD050000490D0000BD050000CF
S214000090BD050000BD050000BD050000BD05000053
S2140000A0BD050000BD050000BD050000BD05000043
S2140000B0817201002D720100098E010035390000A1
S2140000C0BD720100BD05000079580100BD050000A5
S2140000D0BD050000BD050000BD050000BD05000013
S2140000E0BD050000BD050000BD050000BD05000003
S2140000F0BD050000BD050000BD05000010B5054C9F
S214000100237833B9044B13B10448AFF300800123BE
S214000110237010BD28120020000000009CD00100B3
S21400012008B5034B1BB103490348AFF3008008BD75
S214000130000000002C1200209CD00100A3F5803A9D
S214000140704700BF174B002B08BF134B9D46FFF7A9
S214000150F5FF00218B460F461348144A121A19F071
S21400016055FA0E4B002B00D098470D4B002B00D0B5
S21400017098470020002104000D000D48002802D0FA
S2140001800C48AFF3008019F0D5F92000290000F0E4
S21400019015F819F0BBF900BF0000080000000000C9
S2140001A0000000000010002028120020B4290020C3
S2140001B000000000000000007047704708B503F01C
S2140001C0D7FBFFF7F9FF03F0E0FBFFF7F6FFFAE7D0
S2140001D010B512F06BF90446F8B94FF4E05012F07F
S2140001E03FF912F0C9F912F083F905F0B5F80DF0F1
S2140001F04BFD09F00DFC0BF06CFA06F0A2FD0EF0BC
S214000200E7FB22460221042012F056F901200BF0EB
S214000210AFFCBDE8104007F035B810BD08B512F0C9
S21400022045F940B100200BF0A3FC0BF01BFCBDE829
S214000230084012F02FB908BD00F0C7B808B5042171
S214000240112001F06BFF0948012101F01DFC084850
S214000250022101F063FF0748022101F05FFF064814
S214000260022101F05BFF002008BD00BF30253E00E4
S21400027002001E0003002000050024001E4B07B5E8
S21400028001225A641A6842F480721A6001A802F0C9
S21400029067FE9DF80530012B03D89DF80430022B2D
S2140002A00DD9164B4FF41872C3F88C22144AC3F8B3
S2140002B09022144AC3F8F022134AC3F8F822134ACD
S2140002C0D2F8A43143F4F843C2F8A43103F022F97B
S2140002D000F092F803F0AEF803F0D0F803F006F959
S2140002E0FFF7ACFF03F0BCF800F078F803B05DF859
S2140002F004EB00F005BA00BF00000E4000400E40C0
S2140003009A6F0500180100040084320800300E4081
S21400031008B500F025FA00F0DFFC00F035F8BDE87F
S214000320084000F09FB808B500F04DF803F098F9C3
S214000330BDE8084004F01CBB08B503F06BF8BDE848
S2140003400840FFF745BF08B503F0EAFD0FF0CAF90D
S21400035010F0ACFD0FF0BAFC10F026FD10F006FC15
S214000360BDE8084010F04EBD704703F049BC70472A
S2140003707047000018B1034B186000207047252016
S214000380704700BFA012002010B5054C0549206834
S21400039000F0E4FF2068BDE81040FFF7EBBF00BFA9
S2140003A02410002000100020014B1868704700BF82
S2140003B0A012002008B5042201230521002002F027
S2140003C055FC002008BDFFF7F5BF08B5002318460A
S2140003D00422052102F04AFC002008BD08B50548A5
S2140003E0012101F051FBFFF727FFBDE8084000F0B0
S2140003F05BB800BF00350A000148012101F044BB8C
S21400040000350A0070B50024064625465B21082004
S21400041000F00AFA102C04F1010300D170BD012B84
S21400042014D0022B14D0032B14D0042B14D0052B7D
S21400043004D16A1C2946D5B21C46E8E70D3C012CBF
S2140004400CD9102B0CD0B21FD15CF5E70C21F3E7CA
S214000450D121F1E78021EFE70021EDE75A21EBE714
S2140004605D21E9E713B5082000F0D2F9FFF79CFFFD
S21400047001230C4C8DF8003090F8363020607BB9A4
S214000480006802F0EDFD236893F8353020F07F40D9
S21400049040EA837001906846FFF7B4FF02B010BDD3
S2140004A00020F0E7A41200202DE9F0433B4D3C4F1E
S2140004B0DFF80091DFF800810FCD89B001AC0FC4E2
S2140004C095E8070084E80700364C3748012101F01C
S2140004D0DBFA3846012101F0D7FA0125334B0393A6
S2140004E001A920468DF8125002F04CFE2B4604223D
S2140004F00621022002F0BAFB2A460023072102202A
S21400050002F0B4FB2B4604220821022002F0AEFBC8
S214000510042211462B46002002F0A8FB244BA367BA
S2140005200B23636710264FF4487003F039FAC9F8B6
S2140005300C60142003F034FAC8F80C60232003F093
S2140005402FFAC9F80C60B921204602F062FE00239B
S2140005501A46C8F80C600621022002F087FB00232A
S2140005601A460721022002F081FB2B4600220821B2
S214000570022002F07BFB002210462B46042102F0EC
S21400058075FB204602F098FD0021A167384661679A
S21400059001F07AFA09B0BDE8F08300BF14A30100A9
S2140005A0004204000004014000350A0000127A00F0
S2140005B00B0B000B00A0004400A00046FEE7000066
S2140005C008B500F083F8124B12498B4212D3124B37
S2140005D0124900208B4218D3FFF7B4FD186850F874
S2140005E02240586840F82240013298688242F5D38B
S2140005F00C33EAE70022F8E71C6844F822000132D0
S2140006005C68A242F8D30833E4E70022F8E700BFAC
S214000610A4D00100B0D00100B0D00100B0D00100DD
S2140006200048704700F04902104AD2F8943003F0B0
S2140006300703023B032B13D8DFE803F00C14020E6B
S2140006400B4B1B68D2F80001C0F304200130B3FB4B
S214000650F0F07047074BF4E7074B1B685B08F1E7C1
S214000660054BEEE74FF40043ECE700BF00400E40BA
S214000670341100202C1100203011002008B5FFF79F
S214000680D3FF054BD3F80831C3F308230133B0FB7F
S214000690F3F0024B186008BD00400E402811002001
S2140006A0014B1868704700BF2C110020054B1860DE
S2140006B0054BD3F8943003F00703022B01D1FFF764
S2140006C0DDBF70472C11002000400E40044B054A49
S2140006D09A60D3F8882042F47002C3F888207047E6
S2140006E000ED00E0000000004FF4004070474FF4BB
S2140006F07A707047014B1868704700BF34110020AD
S2140007000D4BD3F82828A2F17E63A3F58433B3F506
S214000710605F10B50AD2094C237813F0FD0F08D19C
S214000720D369984708B90123237010BD4FF4817030
S214000730FBE70020F9E700BF0000E10FA812002049
S21400074005490A681318054883428CBF4FF0FF32EC
S2140007500B601046704700BF3811002000000120D3
S21400076008B52248012101F08FF901230422022155
S214000770052002F07BFA002002F026FA1C4B01222C
S214000780C3F810281146042001F024FC194801F093
S214000790C7FA194BD3F8F02042F00102C3F8F02054
S2140007A0D3F8FC2042F08072C3F8FC20A3F55D432A
S2140007B0124A1A6000F5D520114B00F2FC40B0FB3F
S2140007C0F3F0104B013802221861C3F8F0204FF402
S2140007D08072C3F804234FF060430B4AC3F8B02F6F
S2140007E00A4AC3F8802E002008BD00BF00350A0064
S2140007F00080144206000E0000ED00E0FF030040FB
S214000800F8590D00000004E055CEACC50900010003
S2140008104FF060420123D2F8001E03FA00F00843AE
S214000820C2F8000E002070474FF0604330B5D3F892
S214000830802ED20715D501240B4D8440D5F8FC2018
S21400084042F08072C5F8FC20D3F8002E2243C3F88D
S214000850002E53F82020002AF0D003F820100020A5
S21400086030BD1120FCE700BF00ED00E02DE9F04FA1
S2140008709A46554B85B01B78DDF83C909DF844B001
S214000880DDF8508006460F461546002B00F08B809C
S214000890072A00F28A800E9B002B00F08680B9F1B2
S2140008A0000F00F08280129BB3F5006F7DDC0128FC
S2140008B002D1109B002B78D0444B03EB05131B7B17
S2140008C0002B74D0424C10220021684618F09EFE81
S2140008D004EB45141022002F57D13946204618F055
S2140008E095FE43F210036380BBF1000F03D1E3785B
S2140008F043F00303E370364A0E9BCDF800A002EBEC
S214000900451CCCE90193129B013BC3F30A009DF8FA
S2140009104C30690103F003039B0643EA001E53585C
S2140009202C4818404EEA0003012E535041D11323A1
S214000930CCF80C309CE80F000CF1100E8EE80F007F
S214000940DCF81C20109BCCF814306FF0030161F328
S2140009509F02012FCCF81C2003D1CCF81890CCF8BD
S21400096004301A4A290102EB051342F801800027D9
S214000970159A5A6028469F605E732246694602F0C2
S214000980E5F9384605B0BDE8F08F0021204618F09E
S2140009903DFE4FF444736380BBF1000FABD1E378A8
S2140009A043F03003A6E70C48ECE70C48EAE70C48AF
S2140009B0E8E7B8F1000FD4D19CF8023068F30413CE
S2140009C08CF80230CDE700BF2C140020AC120020BB
S2140009D02C1300200F80FFF3028000F0018000F04F
S2140009E0078000F038B5124B1B780546DBB1E0B146
S2140009F001F0F3FC0F4A00231146147B54B92B6018
S214000A001A0101EB031301258C501D7301F0EBFC5A
S214000A10204638BD0133082B02F11002EDD101F05B
S214000A20E2FC0548F5E70548F3E70548F1E700BFAF
S214000A302C140020AC120020048000F0028000F08D
S214000A40018000F013B5164B1868019000238DF84E
S214000A50043001F0C2FC134B1C7824B101F0C3FC37
S214000A60114802B010BD01221A7001F0BCFC0F4BF9
S214000A701C731C7783F82C4083F83C4083F84C406A
S214000A8083F85C4083F86C4083F87C4004230DEBCD
S214000A9003008DF8073002F02FF92046E1E700BF8B
S214000AA080A301002C140020038000F0AC1200206C
S214000AB010B588B00E9C07940D9C06949DF83040A7
S214000AC005940B9C04949DF8284003940024CDE9DB
S214000AD0013400920B46024621462046FFF7C6FE2A
S214000AE008B010BD10B588B00F9C07940E9C0694F5
S214000AF09DF8344005940C9C04949DF82C40039477
S214000B000A9C0092CDE901340B46012102460846B4
S214000B10FFF7ACFE08B010BD0A4A127808B55AB105
S214000B2007280BD8084A02EB00131B7B43B10021B1
S214000B3002F0D8F8002008BD0448FCE70448FAE7AD
S214000B400448F8E72C140020AC120020028000F0C5
S214000B50018000F0078000F00A4A127808B55AB102
S214000B6007280BD8084A02EB00131B7B43B1012170
S214000B7002F0B8F8002008BD0448FCE70448FAE78D
S214000B800448F8E72C140020AC120020028000F085
S214000B90018000F0078000F00D4B1B7893B107280A
S214000BA012D889B10B4B03EB00131B7B73B10A4BB6
S214000BB01A6A012303FA00F010401ABF00200B70D7
S214000BC008707047054870470548704705487047E5
S214000BD02C140020AC12002000200E40028000F0F2
S214000BE0018000F0078000F00B4A127810B50C4622
S214000BF062B107280CD859B1084A02EB00131B7BD8
S214000C0043B102F0F5F82060002010BD0448FCE770
S214000C100448FAE70448F8E72C140020AC12002039
S214000C20028000F0018000F0078000F02DE9F84314
S214000C30DFF86480D8F86070D8F86C301F4000D5B4
S214000C40FEE7144CDFF8549001260025374217D0F3
S214000C502368C8F868609BB1A16862680131A1602A
S214000C6028469847637B012B0AD148B909EB451300
S214000C701A7B60F341021A731A7F60F341021A77F7
S214000C800135082D4FEA460604F11004DED1BDE812
S214000C90F88300BFAC12002000200E402C1300206A
S214000CA070B50C4E0446012504B970BD94FAA4F044
S214000CB0B0FA80F006EB001205FA00F324EA03040B
S214000CC05368002BF0D0117B11B191689847EBE781
S214000CD09847E9E73014002008B5122001F086FB9B
S214000CE028B1084B4FF48022C3F880211A600A20EE
S214000CF001F07CFB28B1034B4FF48062C3F88021DF
S214000D001A6008BD00E100E038B505460C4601F063
S214000D1064FB054B03EB051300225C601A73BDE809
S214000D20384001F060BB00BF30140020054BD3F8FC
S214000D302804D3F81C24104000F05530C3F82404CF
S214000D40FFF7AEBF00A00040054BD3F82804D3F849
S214000D501C24104000F0AA30C3F82404FFF7A0BFFC
S214000D6000A0004038B141B1013AB2F5006F044826
S214000D7038BF00207047034870470148704700BFDF
S214000D80037000F0027000F038B504460D4601F01E
S214000D9024FBA3889BB223B92B6001F024FB0648F2
S214000DA038BD638814229BB202FB034408342C60CF
S214000DB001F019FB0020F3E70B7000F01FB50446A6
S214000DC00B46C07EE17F002B39D00123042201F0C0
S214000DD04DFF012394F82010207F022201F046FFE9
S214000DE094F83530022B19D194F82110607F002337
S214000DF0012201F03BFF0023042294F82210A07F7A
S214000E0001F034FF012394F821200193607F0093C2
S214000E10114601F0E5FE002004B010BD032BFAD108
S214000E200023012294F82110607F01F01FFF0023A9
S214000E30042294F82210A07F01F018FFEBE71A4670
S214000E40039301F013FF039B94F82010207F1A46AB
S214000E5001F00CFF94F83520039B022A12D11A46A3
S214000E6094F82110607F01F001FF039B94F8221094
S214000E70A07F1A4601F0FAFE039B019394F8212006
S214000E800123C3E7032AC6D11A4694F82110607FCF
S214000E90039301F0EBFE039B1A46CAE7F8B5044637
S214000EA016460F4601F099FAA388E2889BB29A424A
S214000EB0054605D80023336001F095FA1748F8BDBB
S214000EC0238814229BB202FB034308333A4607F1F9
S214000ED0100C174603CF6745186059603A4603F171
S214000EE00803F6D138681860238814229BB202FBE8
S214000EF00343083333602388E2889BB20133B3FB95
S214000F00F2F102FB11339BB22380A38801339BB21C
S214000F102846A38001F067FA0020D0E70A7000F0A8
S214000F207FB5012380F8313090F836309BB90268DF
S214000F303432836B013383630E4B03930023049098
S214000F4002934B680193012300930B680169806844
S214000F50FFF7AEFD0BE0012B06D10268136843F4E1
S214000F60005342F8283BE4E7002380F8313007B00E
S214000F705DF804FB2511000090F83530022B10D1E7
S214000F80417F1C22302313FB012303F1047390F8E6
S214000F90212003F5204302EBC3039B001868C0B270
S214000FA0704700207047000013B51E4A002352F811
S214000FB0044B94F8211081420ED00133042BF6D155
S214000FC002B010BD0028FBD19DF80730002BF7D0EB
S214000FD0A068FFF7A1FDF3E794F83530022BEFD1B8
S214000FE02046FFF7C9FF637E2076022BE8D194F8EF
S214000FF0323003F0FF02002BE2D1A0688DF8072004
S2140010000DF10701FFF7C8FD237E1BB194F83330BE
S214001010002BD7D00023A06884F83330FFF79CFD60
S214001020CEE700BF3016002090F8363053B903687C
S2140010300422DA601A699007FCD55A6F42F0020261
S2140010405A677047012B0CD103685A6C9107FCD481
S21400105004225A609A689207FCD55A6D42F0020242
S2140010605A6570471049114A0B7830B52BB9C2E95A
S2140010700033C2E9023301230B700C4C00232146D7
S21400108051F8045B854208D00133042BF8D10021C7
S21400109054F8043B1BB942F82100002003E001315C
S2140010A00429F5D1024830BD401600203016002035
S2140010B0027000F010B50446FFF7C4FC002104F1EE
S2140010C00800FFF78FFC014620B904F10C00FFF77B
S2140010D089FC00B1004810BD0E7000F038B504461B
S2140010E00D4601F07AF9A3889BB223B92B60BDE8C0
S2140010F0384001F078B9638814229BB202FB0343A0
S21400110008332B606388E2889BB20133B3FBF2F1AD
S21400111002FB11339BB26380A388013B9BB2A38082
S214001120E5E70000F7B51446D06A01A9FFF72CFEE4
S214001130A36BA36B013BA363194B984220D0019B82
S21400114000261E619E6001F048F9019AD7680546A0
S21400115027B1D2E9002331462046B847E06A01A904
S214001160FFF7BCFFE06A83889BB263B101A9FFF773
S2140011700BFE01992046FFF7D3FE284601F033F90F
S214001180012003B0F0BD84F8313094F83630012BDE
S21400119001BF2268136823F400531360EDE700BF15
S2140011A00B7000F02DE9F04104469046FFF7DAFD9B
S2140011B00F46054600285CD1092001F025F90646B1
S2140011C0E26A93889BB213B194F8323033B394F842
S2140011D0363043BB23681E6906F002061EB9204659
S2140011E0FFF722FF0026012384F8343094F83630C7
S2140011F01BBBB844474520681AD103699A06FCD53C
S214001200002E36D194F8363033BB23685A6F22F05E
S21400121002025A670822DA6035462AE0002ED0D04D
S214001220FFF704FDCCE7012BD9D123689E68D3E7EE
S21400123017F8011B01F0F7FFDCE7012BE0D1B844FB
S214001240B845206803D183681B07FCD5D8E717F894
S214001250011B01F0F2FDF3E7012BDDD123685D6C85
S21400126015F00205FBD15A6D22F002025A650822DB
S2140012705A602846BDE8F08110B5044680B190F863
S21400128032302BB9FFF778FE10B9A068FFF744FCA0
S21400129094F832300133DBB284F83230002010BDCF
S2140012A00048FCE7027000F010B50446A0B190F8C4
S2140012B032309BB190F83230012B05D1FFF75CFE3F
S2140012C010B9A068FFF748FC94F83230013BDBB257
S2140012D084F83230002010BD0148FCE70148FAE7E8
S2140012E0027000F0057000F037B590F83550022D0A
S2140012F004461DD190F82230857F417E01229A4017
S2140013000C20302313FB050303F1804303F5204331
S21400131011B903F1806303E0012905D103F1C0632D
S2140013201A60002003B030BD217E0029F6D1F0E718
S214001330012DF6D1037E73B911238DF80730FFF720
S2140013409BFF2A460DF107012046FFF72BFF20469C
S214001350FFF7AAFFE5E71323EFE70000F0B5094F14
S21400136004460D460FCF89B001AE0FC697E80700BA
S21400137086E80700002C00F0A8823DB9024E3046F1
S21400138009B0F0BD84A30100037000F05C220021C8
S214001390204618F03BF92046FFF764FE0646002874
S2140013A0EDD12B7C84F835302B68B94A2360934204
S2140013B084F8360040F08D81B64B6362B64B2361ED
S2140013C04FF440236361D5E906230026A262168007
S2140013D05680968084F83060E3621E805E809E8031
S2140013E06B6803936B8984F8316084F83360ADF8DA
S2140013F01430AB89ADF81230AB7BA8488DF81030AE
S2140014000121EB7B8DF8163005278DF8117000F062
S2140014103BFBA348012100F037FB606A012100F086
S21400142033FB28688DF8046001A901F06DFE28687A
S2140014306B7A816F2A7ADFF858C221F4F85121F0CE
S2140014401F01194341EA0221816703214167206891
S214001450604540F05381BA4216D9901F042840F2E6
S2140014606881A2F10B00B84240F26581A2F111003A
S214001470062840F26281A2F11801062940F25F8137
S2140014801F2A14BFFF263E46042BE67640F25981FB
S214001490591F042940F25781A3F10A01052940F299
S2140014A05481A3F11001062940F25181A3F11701DE
S2140014B0072940F24E81B3F11F0118BF4FF0FF31EC
S2140014C0C9B22177002A58D0012A56D0022A54D011
S2140014D0032A52D0042A50D0052A4ED0062A00F0FD
S2140014E04281072A00F04181082A00F04081092A3B
S2140014F000F03F810A2A00F03E810B2A00F0498165
S2140015000C2A00F028810D2A00F027810E2A00F010
S21400151026810F2A00F02581102A00F02481112A46
S21400152000F01D81122A00F01C81132A00F01B8196
S214001530142A00F01A81152A00F01981162A00F0E4
S2140015401881172A00F01781182A00F01681192A28
S21400155000F015811A2A00F014811B2A00F013816E
S2140015601C2A00F012811D2A00F011811E2A00F0AC
S21400157010811F2A0CBF0722FF22E277002B00F003
S2140015808481012B00F01781022B00F08081032B51
S21400159000F07F81042B00F07E81052B00F0018196
S2140015A0062B00F00081072B00F0FF80082B00F0D0
S2140015B0FE80092B00F0FD800A2B00F06E810B2BBD
S2140015C000F06D810C2B00F0E6800D2B00F0E5801E
S2140015D00E2B00F0E4800F2B00F0E380102B00F0C1
S2140015E0DC80112B00F0DB80122B00F0DA80132B4E
S2140015F000F0D980142B00F0D880152B00F0D7808F
S214001600162B00F0D680172B00F03D81182B00F02B
S2140016103C81192B00F0CF801A2B00F038811B2B51
S21400162000F037811C2B00F036811D2B00F0358131
S2140016301E2B00F034811F3B18BF4FF0FF33DBB288
S21400164084F820306B7C6377AB7C84F82130EB7CAD
S214001650A3772B7D84F8223001212046FFF7AEFBCE
S214001660064600287FF48BAE00F0B7FE2B7C032BDB
S214001670074640F018812B682A8CDA675A6E42F0CB
S21400168004025A665A6F42F030025A670AE000BFF8
S214001690000001400032040001000C00404105003B
S2140016A000350A0028684FF0FF3383642B7C032B39
S2140016B00CBF0521042101F0F7FC2B684FF44062B3
S2140016C0DA602046FFF7F6FC0646384600F08BFE4A
S2140016D055E67F4A934206D17E4B63627E4B23617A
S2140016E04FF450236EE67D4A93427FF447AE7C4B20
S2140016F063627C4B23614FF4602363E6DFF8D0C15E
S21400170060455AD1052A7FF6BFAE901F042810D92F
S214001710A2F10B0005280ED9A2F1110006280CD95B
S214001720A2F1180106290AD91F2A14BFFF2605268A
S214001730AAE60126A8E60226A6E60E46A4E63E4649
S214001740A2E60021BDE60121BBE60221B9E603219F
S214001750B7E60521B5E607220FE708220DE70922BE
S2140017600BE70A2209E70B2207E70C2205E70D2202
S21400177003E70E2201E70F22FFE60022FDE6012224
S214001780FBE60222F9E60322F7E60422F5E6052246
S214001790F3E60622F1E6082352E7092350E70A2378
S2140017A04EE70B234CE70C234AE70D2348E70E23AE
S2140017B046E70F2344E7022342E7484988427FF47E
S2140017C0DDAD002A49D0511E0C2948D9A2F10E01E0
S2140017D006298CBFFF2105210C2BE17643D9A3F106
S2140017E00D0106293DD9A3F1140109293BD9B3F10E
S2140017F01F0118BF4FF0FF31C9B22177002A3ED033
S214001800511E0C2931D90E2A31D00F2A31D0102A78
S21400181031D0112A31D0122A31D0132A31D0142ACD
S21400182014BFFF2207220C2BE2773AD90D2B2AD0C1
S2140018300E2B2AD00F2B2AD0102B2AD0112B2AD0D1
S214001840122B2AD0132B2AD0A3F11402092A28D946
S2140018501F2B14BFFF230523F2E61146BCE7FF212A
S214001860BAE70521C9E7FF21C7E7FF22DBE7002229
S214001870D9E70122D7E70322D5E70422D3E70522DA
S214001880D1E70622CFE70023DAE60123D8E60323D2
S214001890D6E60423D4E60523D2E60623D0E60723BD
S2140018A0CEE6FF23CCE6022B7FF4FCAE94F82100B4
S2140018B00D49FFF729FAFFF70FFA4FF40073238359
S2140018C0A6762046FFF710FDECE6084E57E500BF6B
S2140018D0000401400042040001000D000008014021
S2140018E00052040001000E00A90F0000027000F074
S2140018F0F0B587B004461646FFF734FA054658BBDF
S2140019000493194B059394F836300396CDE90116E7
S2140019102BBB23681B6903F0020313B92046FFF7AD
S21400192083FBE06A6A4601A9FFF7B8FA054698B94C
S21400193094F8313083B900F050FDE36A9B889BB27F
S214001940064633B100992046FFF7EAFA012384F8E9
S2140019503430304600F047FD284607B0F0BD012B76
S214001960DCD123689B68D6E7017000F00C4B9842E8
S21400197010D90C4B984210D9022201230A490B6455
S2140019800A49D1F8003123F0807343EA0263C1F8B4
S2140019900031704700221346F0E70122FBE700BF44
S2140019A00048E8010090D0030000C84300400E4005
S2140019B00F4B5B680F4B30B500221C46C9B21D7931
S2140019C08D4202D11D6885420DD20132052A03F1EF
S2140019D00803F4D1032206494B6823F0407343EA18
S2140019E002634B6030BD04EBC2025279F3E700BFDE
S2140019F000000E40C0A3010070B5084C41F67136D9
S214001A00256C2664FEF70CFE0021FFF7D1FFADB271
S214001A10B5421CBF0023236470BD00BF00000E400B
S214001A20044BDB6B5B0604D4034AD2F8C830002BA9
S214001A30FBD1704700300E400000C64308B5FFF7E4
S214001A40EFFF024B5868C0F3014008BD00300E405F
S214001A50044BD3F84421D20703D4D3F840211042D4
S214001A60FBD1704700400E4070B5064C41F671360B
S214001A70256C2664FFF79CFFADB2B5421CBF002361
S214001A80236470BD00000E4038B5C0F30323013B4D
S214001A90092B16D8DFE803F02616151505191C15B0
S214001AA01F23124C0023C0F3043513B11846FFF76A
S214001AB0CFFF04F1424404F5801405EBC404A400EF
S214001AC0216038BD0A4C0023EDE70A4C0123EAE703
S214001AD0094C1023E7E7094C4FF48033E3E7084C42
S214001AE00023E0E7074C0023DDE700BFB0400E40D0
S214001AF0C0400E40E0400E40E8400E40F0400E4031
S214001B0050410E4000400E40C0F30313013B092B2A
S214001B102AD8DFE803F0050B0F1929291F23374BB6
S214001B20274BD3F80001C0F304207047244BD3F8AA
S214001B301401F8E7224BD3F80001C0F30060431C01
S214001B4001209840013870471D4BD3F80C01C0F3B4
S214001B50082070471A4BD3F80801F8E7194B98424B
S214001B6004D0194B984207D000207047144BD3F886
S214001B70203103F00F03E3E7114BD3F82031C3F312
S214001B800113DDE7114B98420CD003F5B01303F5B3
S214001B9080539842E8D10A4BD3F82801C0F30120BD
S214001BA0031DCDE7064BD3F82831E8E7084B9842EB
S214001BB0DAD1034BD3F8300100F00300704700BFC2
S214001BC000400E408006160080162E0090171A0061
S214001BD0A009140008B5FFF797FF013008BD000004
S214001BE000F00F000138072844D8DFE800F0040FA3
S214001BF01943232D4335244BD3F8943003F00703C1
S214001C00023B052B38D8214AD05C70471E4BD3F8D0
S214001C10803003F00703013B042B2FD81C4AF3E760
S214001C20194BD3F8843003F00703013B042B25D867
S214001C30184AE9E7144BD3F8883003F00703013B52
S214001C40042B1BD8144ADFE70F4B1B6F13F0010F52
S214001C500CBF0720092070470B4BD3F85C3103F00C
S214001C603003202B0CD0302B0CD0102B14BF0120AF
S214001C7007207047002070470520704701207047F6
S214001C80042070470820704700400E40B0A30100B3
S214001C90B6A30100BBA30100B6A3010008B5014628
S214001CA0FFF79EFF1A4B994212D01A4B994213D057
S214001CB0194B994204D1194BD3F8800000F0070065
S214001CC00138042822D8DFE800F00B0F17130B00AA
S214001CD0124BD3F88400F1E7104BD3F88800EDE7F9
S214001CE0BDE80840FEF700BDBDE80840FEF702BDAF
S214001CF0BDE80840FEF7FBBCFEF796FC074BD3F8A2
S214001D000031C3F300630133D84008BD0020FCE770
S214001D10030020000500240002001E0000400E40C4
S214001D2000F47813B3F5B01F10B5044674D025D868
S214001D30B3F5402F5ED010D8B3F5802F49D005D824
S214001D403BB1B3F5003F4FD0002010BDB3F5202FB8
S214001D50FAD1BDE81040FEF767BCB3F5801F00F06F
S214001D608480B3F5A01F4DD0B3F5602FECD14A4860
S214001D70FFF736FF072878D00928E9E7B3F5381FBC
S214001D8053D013D8B3F5001F58D00AD8B3F5D01FD8
S214001D9056D0B3F5F01FD7D14048BDE81040FFF746
S214001DA07DBFB3F5101FCFD13D48F6E7B3F5481F0A
S214001DB04DD0B3F5781F65D0B3F5401FC4D1394870
S214001DC0FFF76CFF384BD3F82831C3F301230433F5
S214001DD020E0FEF729FC344BD3F80C31C3F308237C
S214001DE00133B0FBF3F0B0E7FEF71EFC2E4BD3F842
S214001DF00831F3E7FEF718FC2B4BD3F81431C3F386
S214001E000423EDE72648FFF749FF274BD3F8303188
S214001E1003F00303D84098E72048FFF73FFF224B24
S214001E20D3F8203103F00F03F4E71C48FFF736FF22
S214001E301D4BD3F82031C3F30113EBE71948ACE789
S214001E401848FFF72BFF184BD3F82831F3E717484D
S214001E50FFF7C6FE072808D0082809D004287FF414
S214001E6073AFBDE81040FEF71BBC114B18686CE75B
S214001E70FEF7DAFB0C4BD3F80031C3F3042303FB65
S214001E80000062E7FEF7D0FB01462046FFF7A2FE01
S214001E90B1FBF0F059E700BF06000E0002001E007E
S214001EA0050024000300200000400E40B800320069
S214001EB03C110020014B1880704700BF40110020E5
S214001EC0013810B5032812D8DFE800F0022E1220E1
S214001ED0214AC1F30801D2F86838002BFBD11F4A0B
S214001EE0136A23F4FF7323F001031943116210BD34
S214001EF0194A01F07F01D2F86038002BFBD1174A4F
S214001F00136923F07F0319431161F0E7124A01F0C9
S214001F107F01D2F86438002BFBD1104A936923F076
S214001F207F0319439161E2E70C4AD2F89030536A76
S214001F3023F0300343F010035362146B084BC1F3D5
S214001F40C31003300F2803EA040328BF0F201943E9
S214001F5041EA00711163CAE70020C84300400E4002
S214001F6000F8FF0F104A536A13F0300F18D02029DC
S214001F7013D0302914D000290C4B08BF4FF440036F
S214001F80D2F8901033EA0101FAD15B0246BFD2F8CC
S214001F90A000C0F38020012070474FF40003EFE755
S214001FA04FF44003ECE700BF00400E40FFF3E17F34
S214001FB002280AD129B1064B4FF48060C3F8A80066
S214001FC0596612B10220FFF7CDBF0120704700BF4F
S214001FD000400E402DE9F34106460F46904607287E
S214001FE068D8DFE800F0049025208B67670D4FF473
S214001FF000714FF4807408230925002F69D05FE034
S21400200001A800F0ADFF9DF80530012B06D94FF46E
S21400201000414FF480440E230F25EEE79DF8043070
S214002020022BF4D8FEE70124022100232546E4E72C
S21400203000294BD0364A536A13F0300F3DD1354B4A
S214002040DB6B536ADB0705D5536A23F0300343F096
S214002050100353620424022303252D4A14662E4AD5
S21400206013449B0019680029FCD0B8F1000F21D05A
S2140020701544AD002B68002BFCD0022E1AD1CFB130
S214002080234F796A11F001011CD00122202130462D
S214002090FFF78EFFD7F89C60012200210220FFF791
S2140020A099FFC6F30A010220FFF70AFF3C662B6879
S2140020B0002BFCD002B0BDE8F081042402230325E7
S2140020C00027CAE73046FFF74DFFE3E70821022363
S2140020D003250F480122016602FA03F3D0F8902088
S2140020E01A42FBD1B8F1000FE4D00123084A03FAE4
S2140020F005F5D2F890302B42FBD1DBE720211024E7
S2140021000423052579E7802140240623072574E764
S21400211000400E4000300E408004F210112838B502
S2140021200C4617D000F00F00013807286BD8DFE800
S21400213000F02D04666A648C6A97624D013C0C2C94
S21400214061D8DFE804F080616860606F6060605EA0
S21400215060607900042912D1FEF7A2FA0546A8B1FC
S2140021600021284600F0E6FA023C0A2C4BD8DFE8AD
S21400217004F03F3C30364A4A4A4A4A0F4200052994
S21400218004D1514B1D68514B9D42E9D80025EBE721
S2140021900320052401221146FFF71CFFFFF72CFC45
S2140021A00DB1FFF73DFC4A4B5C67FEF767FA044645
S2140021B0FEF73AFAFFF7DAFBFFF740FC0146204647
S2140021C0FFF752FCFDB928460121BDE8384000F073
S2140021D0B1BA4048FFF7CAFB02200446DAE73D489A
S2140021E0FFF7C4FB01240320D4E701200324D1E732
S2140021F000200424CEE70724D0E7374D9EE7374D6E
S2140022009CE704232B6038BD012211460020FFF70F
S214002210E1FE0223F6E7012211461046FFF7DAFE3A
S2140022200123EFE7FEF700FAFFF7A0FB2C4B012295
S214002230C3F808260323E5E7012211460720FFF727
S214002240C9FE0523DEE70023DCE7072904D00929B9
S214002250D9D11F4B012201E01D4B00221A67D2E79D
S2140022604C1E072CCFD801A353F824F0BF22000041
S2140022700722000007220000B1220000072200000B
S21400228007220000A32200008D220000032210492E
S214002290D1F85C3123F0300343EA0213C1F85C3115
S2140022A0B1E7012211460420FFF794FE0122EEE773
S2140022B0012211460220FFF78DFE0222E7E70022E8
S2140022C0E5E700BF80400E4030110020002D3101B0
S2140022D000400E400148E80188400E4084400E4011
S2140022E00010C84310B504461120FFF779FC002102
S2140022F001220220FFF76EFE184A217C536A23F063
S2140023000103022908BF43F001035362144B2178EE
S214002310C3F8A014637AA18843EAC123D362136B7F
S214002320A07A217A03F07F630343E08843EAC02360
S21400233043EAC11303310F2928BF0F2143EA017373
S2140023401363A37B617B1B0143EA0133E17B0B43F1
S214002350217B43EA0143536310BD00BF00400E409B
S2140023600000C84338B50E4D01461120FFF738FC73
S214002370AA6B0C4B0C7813401C434B7844EAC324DE
S2140023808B7844EA0364CB7844EA0324AB6BA3421D
S21400239005D0002101220846FFF71CFEAC6338BDBD
S2140023A000400E4080E4FFF80028A7BF00F1604020
S2140023B000F5614000F00F00034BACBF90F800033F
S2140023C0185C4009704700BF14ED00E0EFF3108082
S2140023D072B6704700B962B67047EFF3118060239B
S2140023E083F31188704780F3118870474209054BC4
S2140023F053F8223000F01F0023FA00F0C04300F02C
S2140024000100704700E100E008B50146EFF31083D5
S214002410DB0702D50122104608BDFFF7E7FF02469C
S2140024200028F7D10846FFF7BFFF0146EFF31183F8
S21400243013B1B0EB531FEDD2074B5B68C3F3080331
S214002440002BE8D0103B58B2FFF7AEFF88428CBF97
S21400245000220122DFE700BF00ED00E030B5D1E941
S2140024600223D1E90054056004600260036030BDB9
S21400247030B50568046802680368C1E90054C1E91C
S214002480022330BDFFF7EABF7FB58B07044611D0A5
S2140024900B466D4601F11006186859682A4603C2B5
S2140024A00833B3421546F7D169462046FFF7D6FFF4
S2140024B004B070BD0091009904B0BDE87040FFF70D
S2140024C0CDBFFFF7D5BF30B58B0785B00C4610D013
S2140024D06946FFF7CDFF0D46234604AC2A4603CADD
S2140024E0A24218605960154603F10803F6D105B0FC
S2140024F030BD0091009905B0BDE83040FFF7B8BF89
S21400250010B5FFF7ABFFBDE810401031FFF7A6BFD0
S21400251010B5FFF7ADFFBDE810401031FFF7A8BFBC
S21400252010B5FFF79BFF0C461031FFF797FF04F13D
S2140025302001FFF793FF04F13001BDE81040FFF7DC
S2140025408DBF00F1424303F58013102A4FEA431370
S21400255005D101221A6000F58870FFF7D1BF00226E
S2140025601A602430FFF77ABFF0B50B46990789B09A
S214002570054614461ED0082A6E4610D103F11007F1
S21400258018685968324603C20833BB421646F7D16C
S214002590224669462846FFF7D4FF09B0F0BD03F18E
S2140025A0200718685968324603C20833BB421646ED
S2140025B0F7D1EDE70093009909B0BDE8F040FFF7CA
S2140025C0C0BF0000034BD86B80F04000C0F3801003
S2140025D0704700BF00300E4042EA0323B3F5007F89
S2140025E039D016D8B3F5807F31D007D85BB3012B2E
S2140025F01ED00022134603600A60704740F20112A4
S2140026009342F6D1184BD3F824321A0EC3F307437D
S214002610F1E7B3F5407F22D040F2013293420ED06C
S21400262040F201229342E4D10F4BD3F8283202E065
S2140026300D4BD3F82432C3F30722DBB2DBE70A4B99
S214002640D3F82832E1E7084BD3F81C32F3E7064B01
S214002650D3F81C32D9E7044BD3F82032EBE7024B11
S214002660D3F82032D1E700BF0081E00F08B5FFF7AE
S214002670A9FF20B1024AD2F8C830002BFBD108BD12
S2140026800000C6430378134A002B437870B514BF86
S21400269004260026002B8378946914BF02250025A3
S2140026A0002B037924F03F0443EA0403C47814BFE4
S2140026B008210021012C08BF43F0010333432B43BC
S2140026C00B4393611368417923F4403343EA014393
S2140026D0136070BD00300E4070B504460E46FFF71E
S2140026E071FF10B3FFF7C2FF104B5B68C3F30143E3
S2140026F09C421AD00E4BD3F80031FDF795FF022C02
S214002700054602D12146FFF7AFF9C4F102021023B5
S2140027109340064A13610EB1FFF7A8FF2CB9214675
S2140027202846BDE87040FFF79FB970BD00300E40E8
S21400273000400E4013B50246FFF744FFC8B152B939
S2140027400D4B0191D3F80041FDF76EFFC4F3042250
S214002750019902FB0002094B1B7843B1084B9A42D1
S21400276005D8022002B0BDE81040FFF7B5BF002034
S214002770F8E702B010BD00BF00400E40481600202B
S214002780002D3101174B4AF6E85210B5596B5A63C3
S2140027909A6FD407FCD41B6C13F003031EBF124AB7
S2140027A00124C2F8B44A834216D00E4B9A6FD20761
S2140027B0FCD41A6C22F0030202431A649A6F12F0D9
S2140027C00102FBD10038084C18BF01200129C4F8CB
S2140027D0B40A08BF5A6303E010B9034BC3F8B40A3F
S2140027E010BD00BF00300E400000C6432DE9F04F7C
S2140027F0002389B0CDE90233CDE90433CDE90633B1
S214002800A0F5E163B3F5966F04460D46914604D9EC
S2140028100025284609B0BDE8F08FB0F5E16F674B9C
S2140028208CBF0122002240F0BC80D3F81832C3F3DC
S2140028300721DBB2079104934FF4167A4FF4966B98
S214002840DFF87C81D8F84C700192C7F301773B46DD
S21400285005A902A8FFF7C0FED8F8E060019AC6F303
S2140028600126334606A903A8FFF7B6FE049B079980
S214002870A4EB0B0EA1EB030C0EFB0CFCBCFBFAF25C
S21400288013EB020C2CBF012300236145C0D3002BA1
S214002890BED1069A0398131A0EFB03F3B3FBFAF3A2
S2140028A0C0182CBF012300238242B1D3002BAFD126
S2140028B0059B02995A1A0EFB02FEBEFBFAFA11EBB2
S2140028C00A012CBF4FF0010E4FF0000E8B429FD333
S2140028D0BEF1000F9CD1B9F1000F10D0D8F85C20E3
S2140028E022F4FE4222F00202B4F5E16F42EA0C2224
S2140028F018BF4FF0020E42EA0E02C8F85C20002D08
S2140029004DD02E4B022FD3F830223ED0032F3FD08F
S214002910012F14BFD2B2C2F30722120312F4702F93
S2140029207FF476AF264FFB6E23F470431A43234B97
S214002930FA66022ED3F830222CD0032E2DD0012E8C
S21400294014BFD2B2C2F30722120312F4702F7FF420
S2140029505FAF1B4ED6F8E03023F470431A43C6F838
S214002960E020736E814238BF014623F4FF73E729E7
S21400297023F0010328BFE721B4F5E16F18BF43F049
S214002980010343EA4103736643E7C2F30742C4E721
S214002990120EC2E7C2F30742D6E7120ED4E70125AD
S2140029A037E7D3F81832190EC3F307430791049399
S2140029B04FF4966A4FF4E16B42E700BF0081E00FE8
S2140029C000300E40304B1A6FD96C11F0010F02F038
S2140029D0060244D0002A42D0132851D914381328AE
S2140029E08CBF102308232849013BCA6C180322F425
S2140029F07F4240EA03231343CB64244BCA6C1B88F4
S214002A00C2F303222833013202EB820003EB5303A6
S214002A10B3FBF0F3C86C013B072B28BF072320F05D
S214002A20EE6040EA036343F48013CB64184BB3F9BB
S214002A300030002B12DB03F12800C0F34E030344E2
S214002A40500800EB4202B3FBF2F20B6D072A28BFD8
S214002A50072223F0700343EA02120A657047D96C16
S214002A6001F00101114304D1092809D90A380928BF
S214002A70B6E7DB6C13F00103B5D01AB92728AFE729
S214002A800423B0E70023AEE700300E4044160020D3
S214002A9046160020064A074BD3F88039136F23F0FA
S214002AA007031843044B10671888FFF78BBF00BF57
S214002AB000300E400000C6434216002038B50446DB
S214002AC08088E388B4F90C504A2B50D9B3F5FA7FC6
S214002AD04FD340F6C312934294BF4FF000524FF0CC
S214002AE040522949CB6C23F0405323F00103002DBC
S214002AF0A8BF43F001031343CB64D1F8E03043F49E
S214002B004073C1F8E030214B1880CB6E43F08073E1
S214002B10CB661F4BD3F8800900B10420FFF7BAFF3D
S214002B201C4B218919801C4BB4F90C20A0881A80F4
S214002B30FFF748FFA37BFBB1012B21D00122608861
S214002B401146FFF753FE054678B10F4AD36B43F4A0
S214002B508063D3636078FFF715FEA37AA3F12002A3
S214002B60534253410A4AC2F89437284638BD0022D9
S214002B70B7E74FF08052B4E7034B084A9A65DDE7A3
S214002B80014B074AFAE700BF00300E40421600200D
S214002B900000C64344160020461600207740205703
S214002BA0372110B770B505460E461446FFF70EFCE3
S214002BB0296881EA040202EA06044C402C60BDE85B
S214002BC07040FFF707BC0000044AD2F8443423F0F4
S214002BD003031843C2F84404704700BF00A0004037
S214002BE0072AF8B501F0030614461F464FF00F01FA
S214002BF020D8950000FA05F2A9401648FFF7D2FF44
S214002C000321154806FA05F2A940FFF7CBFF134942
S214002C109DF818302144890001220F60C1F88030E9
S214002C200F4B02FA04F4C3F824449DF81C30C1F894
S214002C300033F8BDA2F10805AD0000FA05F2A94080
S214002C400848FFF7AFFF0321074806FA05F2A94038
S214002C50DBE700BF00A4004008A4004080208510E9
S214002C6000A0004004A400400CA4004000EB40007C
S214002C70F8B50D461F46040116463AB1164801231C
S214002C808B402044CFB100F1C0600360072D4FF0A9
S214002C900F0115D8AB00114806FA03F299402044FC
S214002CA0FFF780FF46B90C4A012101FA05F52244D8
S214002CB077B102F1C0621560F8BD00F18060E4E70C
S214002CC0A5F108039B00064806FA03F29940E6E7DA
S214002CD002F18062EFE700BF0CA0004004A00040B5
S214002CE008A00040034B03449B0081F001011960DB
S214002CF0704700BFA001F11010B5044601214FF443
S214002D00AA40FEF7C1FEB4F8013022785BBA9BB247
S214002D1043EA02630B4A136000231362D3625363D1
S214002D204FF00043D3664FF0FF339366064A4FF4E6
S214002D300071C2F88011E3785B01DBB282F80933D8
S214002D40116010BD00200E4000E100E02DE9F041CA
S214002D50C3B201259D40CB7A8F7A234ED1F800E08E
S214002D600C464FF03008097B94F80DC0B5661B057D
S214002D7008FB006043EA074343EA415322F003029C
S214002D80C0F880E0C0F888C0C0F88430C0F898204A
S214002D90FFF723FBF36E2B43F366237A13B1736BB3
S214002DA02B437363637A13B1F36A2B43F3620E4BC0
S214002DB01A68237923B1DB431B0263F47F431A406E
S214002DC063790BB142EA0322A3790BB122EA03022C
S214002DD0E3791A43044B1A60044A9562DD63BDE842
S214002DE0F041FFF700BB00BF00200E4000200E445D
S214002DF0F8B5C3B2012504469D40FFF7EEFA0A4B2C
S214002E0030221E6E9F6A02FB0433D3F88C40FFF715
S214002E10EAFA3D4206D1C4F30A1008B9354200D199
S214002E200130F8BD0020FCE700200E40036CDB07F5
S214002E3002D4436C0B42FCD1704708B50A4683683F
S214002E40DB06FCD54021FFF7F1FF826208BD0000DB
S214002E50014B01229A60704700500E40134B1449F4
S214002E60F0B500225D68134E1046D6F8E8714C683F
S214002E700B687F070BD4B3F5006F06D012D8B3F5F6
S214002E80007F02D0B3F5806F01D144F480742B42EA
S214002E9002D02C4208BF18430132092A01F108016A
S214002EA0E3D1F0BDB3F5803FEEE700BF00500E4023
S214002EB0E8A301000040E00F8B784A789B0143EAC4
S214002EC082030A781343CA7843EA02130A7943EA6C
S214002ED0C2234A7943EA02338A79043043EA4243FA
S214002EE00001014A1350704700200440014B18604F
S214002EF0704700BF00008442427801790378002AB8
S214002F00827870B514BF04260026002AC27814BF43
S214002F1010250025002A42794FEA023242EA0122B1
S214002F2042EA0302837914BF20240024002BC379CD
S214002F3042EA034343EA0603027A43EA050314BF60
S214002F404FF4004100212343002A14BF4FF40032FF
S214002F5000220B431343014A136070BD0020044057
S214002F600D4AD2F8E430D2F8E0109B0003F03C03A0
S214002F70C1F381110B438370D2F8E03003F03F03B6
S214002F804370D2F8E830D2F8EC2003F0F003C2F336
S214002F90031213430370704700FF0FE070B5054639
S214002FA016461C4619B91448FEF7BAFE0146402CD0
S214002FB01BD003D8DCB1202C1BD070BD602CFCD1FC
S214002FC0042303FB06F2560806EB4113B3FBF2F3A9
S214002FD00A4A203B02EAC3032A6822F060022A60FB
S214002FE02A6814432C606B61E7E70623E9E71023A1
S214002FF0E7E70823E5E700BF40410500F8FF7F004C
S2140030002DE9B841154F15460F40FAB9202B20D0B0
S214003010402B20D0002B14BF40241024012307F59A
S21400302080775F4300233A46194616F0EDF855437D
S21400303004FB035100FB04F8A2FB040400233A46F9
S214003040214416F0E1F84044BDE8B881802400250C
S214003050E4E71C46E2E780240323E0E7F8FF7F006E
S21400306070B5044605680648FEF75AFE236861698F
S21400307005F0010203F06003BDE87040FFF7C0BF33
S2140030804041050038B50546144619B90548FEF70F
S21400309047FE014601396400B1FBF4F1090269619B
S2140030A038BD00BF40410500CB435B0003F00A0378
S2140030B0C360C1607047000040F6AA63C36041F277
S2140030C005020023036042600C4A83604361C364C8
S2140030D082640B4A03669042436702F58062836708
S2140030E0C36704D0904202D00649884200D10365E7
S2140030F000239042836508BFC3657047F9FF01004F
S214003100000001400008014038B50D46FFF7D4FF27
S214003110AB7C04461BB1036843F080430360EB7C42
S2140031201BB12B7D43F08003A3652A8A6B7B134378
S214003130EA89134363602B7BD5E901122046FFF72B
S2140031402DFF6B7D1BB1236843F480332360AB7D7A
S2140031501BB1236843F400432360EB7D2A7E1B07E4
S214003160120502F4E00203F0E04313432366636FA4
S21400317023F030036367626F6B7E134363672B78BD
S214003180E36038BD38B50D46FFF796FFA97B2A8A5F
S2140031900368002942F0010214BF4FF48061002149
S2140031A013430B432A7D03600368002A14BF4FF0C5
S2140031B00052002213430360AB7C04461BB1EB7C39
S2140031C043F0800383652B7B43F480536360D5E92B
S2140031D001122046FFF756FF6B7B0BB11023E3600E
S2140031E06B7D1BB1236843F480332360AB7D1BB13A
S2140031F0236843F400432360EB7D2A7E1B071205F9
S21400320003F0E04302F4E002134323662B78E36006
S21400321038BD03695A06FCD5416303699B06FCD595
S214003220C069C0B2704703695B06FCD5416370474E
S21400323038B5044610F0BBFB0FCC044D0FC594E820
S2140032400F0085E80F00002038BD00BF4C16002098
S21400325047F6FF739A42F0B569D0022969D8364B13
S21400326003EBC105CF00A87813F83110012838BF4A
S21400327001200129044613D1EB781B1A002098423E
S21400328002D3E018C0B2F0BD191AA3EB51016E6864
S21400329036F911609642CCBF01F1FF330846EEE7DF
S2140032A068680028EFD0B0F90010914204DBB0F94E
S2140032B002109142B8BF114682883B44FF2A08BFDD
S2140032C0B0F906205F7807BFB0F908600125002531
S2140032D0C82207F1FF3318BF2826521A92FBF6F2CF
S2140032E02A44934228BF134600EBC3054FF47A7E68
S2140032F0AE68EA8811FB02621E46013322EAE272D9
S2140033009F4202F5FA72AC46B2FBFEF205D9BCF853
S2140033100CC0944505F10805EAD200EBC60080888B
S214003320904228BF1046A04238BF2046AAE7FF209A
S214003330A9E70020A7E700BF4C1600200229F0B539
S2140033405FD8314B13F83100012816D103EBC101C9
S2140033508C78C878012C234638BF0123904294BF4E
S214003360C3EB0003C3EB0203DBB2001B4A688342D5
S214003370C8BF002332F91300F0BD002A3FD003EB8C
S214003380C1014B68002B3CD08878904202D3B3F939
S2140033900200F1E7CC78B3F900009442ECD94C78FF
S2140033A09988A1F1FF06013C714203F10405E4B2DD
S2140033B0714103F10C071FFA82FCCEB2B44216D854
S2140033C005EBC1014FF47A75B1F9024049686A43CA
S2140033D0521A04EBD47102EB610292FBF4F29042B3
S2140033E0CADBB3F902009042C6DC10B2C4E737F875
S2140033F031E0E64501F10106E2D33146DDE7034858
S214003400BAE70348B8E700BF4C1600200CFEFFFFE3
S2140034100080FFFF08B50448FFF70AFFBDE8084034
S214003420012010F0C6BA00BF30A401000048704763
S214003430421100207FB5094B6A4603F11006154677
S21400344018685968144603C40833B3422246F7D1B5
S2140034502846FFF733FB002004B070BDE8A4010047
S21400346013B502230024684600948DF804408DF8B6
S2140034700530FFF707F9204602B010BD70B5174BB0
S21400348086B001AA03F11006154618685968144656
S21400349003C40833B3422246F7D11B882380104B5F
S2140034A0D3F8B42012030ED4D3F8B830C3F308030D
S2140034B00C48ADF80A30FDF7F9F82846FEF712FF7B
S2140034C0002006B070BD084B1A884FF6FF7140F218
S2140034D04F138A4218BF1346EAE700BFF8A401005C
S2140034E00081E00F00F049020001E00F07B5084B2D
S2140034F018680190202301A88DF80430FEF732FFEB
S2140035006420FEF7D7FC002003B05DF804FB00BF84
S2140035100AA5010010B50C480C4C6FF00402A0215F
S21400352012F0800FD3B21BBF03F00F03043BA318A7
S2140035301B1802F101020CBF83F8001319762F2A1C
S214003540EED1002010BD00BF00ED00E000E100E07D
S21400355030B50F4C41612368ABB92060836011E041
S214003560891A9A6841611D462AB113465A698A42E9
S214003570F6D955B11A46A8601346836013B15A6946
S214003580511A596130BD0025F0E72060F5E700BF0D
S2140035908416002010B500F06BF90A4C0A4B196827
S2140035A02368C31A01B10BB9206010BD4A699A425C
S2140035B02EBFD21A9B1A00224A6128BF00238968B0
S2140035C0F0E700BF701600208416002038B5134DB3
S2140035D02B685B6993B1124A146802201C4400F001
S2140035E07BF9204600F04AF90E492A6800230B7042
S2140035F0D088800709D501230B7038BD022000F063
S2140036006BF9022000F08EF9EEE79268002AF4D0FB
S21400361050690344012BEBD9EFE700BF8416002066
S21400362070160020781600200C490B6800227BB12B
S21400363083420AD183687AB1936083681BB15A6962
S21400364041690A445A61002070471A469B68EEE7B3
S2140036500028EFD0022070470B60EEE784160020AB
S21400366070B5154EFEF7B9FE34780546FCB9134B17
S2140036701C60134B1C60134B1C8000F0B5F8012037
S21400368000F02AF900F06EF90F4B0246186020B9D8
S2140036902846FEF7A8FE232070BD23460B4840F2BE
S2140036A0E73115F0B1FD0A4B186001233370284648
S2140036B0FEF799FE0020EFE76C1600208416002027
S2140036C0701600207A1600208016002018FCFFFFD7
S2140036D074160020C2072DE9F34704460BD53F4A6F
S2140036E0138801339BB21380FFF754FF3C4B1B68D3
S2140036F00BB1FFF76BFFA3076DD5FEF76EFE054611
S214003700FFF748FF0026DFF8D8803746B146D8F8DE
S21400371000400CB163698BB1324B0022012F1A7046
S21400372002D1022E08BF1F70002C44D0FFF74EFFB8
S214003730284602B0BDE8F047FEF755BE23461A7984
S2140037402179914288BF1C469B6813B15A69002AAA
S214003750F5D02846FEF747FE256985B300F088F8C1
S214003760A269861AF317B54279EB030328DA2369B0
S2140037701344A3610123226982B17BB9A91B01917D
S214003780FEF72BFE019982462046FFF7E1FEA3696D
S21400379022691344A3615046FEF725FEE368E688D7
S2140037A0013713B1216820469847FEF716FE0546F6
S2140037B0FFF7F0FEABE7022000F09CF8B8E72E46D5
S2140037C0FEF70BFE82462046FFF72EFF5046FEF71A
S2140037D00AFE0023CFE702B0BDE8F0877A16002085
S2140037E0841600207C16002010B51D4B86B0186885
S2140037F0596803AA03C2197AD3F809001170019018
S214003800B3F80D201748DB7BADF8082001218DF8B2
S2140038100A300024FEF738F903A88DF80C408DF81E
S2140038201040FFF769FB01A901208DF80440FFF75F
S21400383043FB0D4A536A23F4FF6323F007035362E6
S21400384040F2FF73136201209460FFF74FFB074BB3
S2140038504FF00042C3F880211A6006B010BD00BFCA
S2140038600EA50100A00914000020044000E100E0BD
S214003870014B9868704700BF0020044010B504460E
S214003880FEF7A4FD124A9368516D9269520704D45C
S214003890CA1A032A01D899420DD1E21A022A98BF01
S2140038A0DC1C0B4BB4F1FF3F38BF013C5C655A6A29
S2140038B042F004025A62FEF78DFD064A137833B1D1
S2140038C003490B6D43F002030B650023137010BD14
S2140038D000200440481100208207054A00F001033A
S2140038E0516A48BF43F004030B435362704700BF5E
S2140038F000200440820700F0010309D5074A012191
S214003900117007490A6D22F0030243F004030A65AA
S21400391003494A6A22EA03034B62704748110020B3
S21400392000200440830742BF014B0422DA6170473F
S2140039300020044010B5FEF750FD094A936904467E
S214003940590703F0010003F0070348BF40F00200E8
S2140039501362FFF7BFFE2046BDE81040FEF743BDEA
S214003960002004400148FEF7DBB900BFA0091400A0
S21400397008B5FCF783FCFCF7CBFCFCF7D4FCFCF7A3
S214003980DBFCBDE80840FCF7DEBC08B5FCF7ECFC49
S214003990FCF7EBFCFCF7EBFCBDE80840FCF7E8BCEA
S2140039A010B50446FCF76AFE0B4BA0F57A729A42F5
S2140039B010D84FF47A735C43B0FBF3F0074BB3FBBD
S2140039C0F0F0B4FBF0F0032804D9BDE810408008FE
S2140039D000F006B810BD00BFFFC99A3B40420F007A
S2140039E0013800D0FCE770474C2070479C20704799
S2140039F00368C360C0E9013301747047037CDB07CA
S214003A0001D5408A7047D0E901239B1A44BF428AF9
S214003A109B1898B270472DE9F04116460546FFF709
S214003A20EDFFB04228BF304686B20F46B046B8F12A
S214003A30000F0FD15EB12B7CD90744BF23F00103E2
S214003A402B742B7C9A0744BF23F002032B7430465A
S214003A50BDE8F0816C8A2B6869681C44641AA4B2BD
S214003A60444528BF444627B13846224615F0A6FDF1
S214003A7027446A682B68698A22441944A8EB040420
S214003A808A4238BF13461FFA84F86B60CFE730B51A
S214003A900346448AC56800682044401B80B28242C0
S214003AA028BF024601B10D60D96818681144204449
S214003AB08142D96024BF091BD960D86859688842FA
S214003AC002BF197C41F002011974104630BD8368AC
S214003AD08B420FD0428A036881601344994224BF08
S214003AE0891A8160D0E901329A4202BF037C43F012
S214003AF0010303747047000038B50A4D402422467F
S214003B000021284615F082FD074A00231370074A55
S214003B101560074A01211180064A1380064B1C8057
S214003B2038BD00BF18170020E11700208C160020B3
S214003B3092160020E21700209016002008B50022FA
S214003B40114610460BF020FCBDE80840FFF7D4BF36
S214003B5030B50D490D4D0B780022D4B2A3420BD8D8
S214003B60202B10D0094A22F8230002EB8302002003
S214003B70013350800B7006E0013205EB820434F806
S214003B80044C8442E9D130BDE01700209616002090
S214003B90F0B50C4E33783BB100210B4D0C46013B83
S214003BA0CAB29A4201DB3370F0BD35F82270874204
S214003BB008BF0124A718013155F8277045F8227070
S214003BC0EEE700BFE01700209616002030B50A4B3F
S214003BD01C780A4B0022D1B28C4201D8002007E0A4
S214003BE033F82250854202F1010102D103EB820034
S214003BF030BD0A46EFE700BFE0170020961600200B
S214003C002DE9F04100F02AFA002840DD744C754E8C
S214003C1021883388744FDFF8F0813868994228BFCE
S214003C20194600F001FAB8F800303A6881B212FA84
S214003C3080F213FA80F0A8F80000208833883A60F3
S214003C40401A80B25B1A01282080338005D1674B6A
S214003C501B78022B01D100F0E5F925880DB13388D9
S214003C60ABB9624A1378012B15D0022B2DD0C3B9FD
S214003C705F4B1B78012B06D0022B0AD08BB9BDE810
S214003C80F041FFF739BF0323238001231370BDE8FB
S214003C90F0810423F8E7564B1978012905D002294C
S214003CA00CD0BDE8F041FFF749BFDB7823802388BE
S214003CB04BB9B8F9001001224D4843E0D9781B797A
S214003CC041EA0323F2E70223E0E7494C45B100222C
S214003CD0402120460BF058FB402333803C60D6E75B
S214003CE0284600F09FF92378012B42D1B4F8013022
S214003CF040F63142934228D040F6334293423ED0BB
S214003D0040F63542934234D181223A48394E29460C
S214003D1015F07CFCE278812A03D8211D304615F088
S214003D204DFC3778344D0024E3B29F4242D8334BE3
S214003D302A78B3F803309A424FF0000288BF2B70FF
S214003D40114610460BF020FB99E7E2782C4B012A2F
S214003D5008BF22791D7008BF1A701B784BB9264A17
S214003D6028481370194600EB83020133202B51803C
S214003D70F9D13188C1F14001012209B29CE7E2780D
S214003D801E4B072A1D60C3F8035005D160682189C1
S214003D90A27A186099809A71B3F80320164B1948D6
S214003DA01A700023194600EB83020133202B518042
S214003DB0F9D1DEE73B1906EB4303B3F8018006EBC7
S214003DC04403B3F80100FFF701FF18B14288A2EBE5
S214003DD0080242802B7843442B700134A4E700BFCE
S214003DE092160020901600208C160020E117002066
S214003DF0181700205F17002088160020581700208C
S214003E009416002096160020E217002070B5C2B067
S214003E100A4606460D460146684615F0CFFB9DF855
S214003E200030042B51D19DF80130032B0FD19DF8A3
S214003E3009309DF8080000EB032080B2FFF788FEEB
S214003E40A9B2304642B0BDE8704000F01BB9052B61
S214003E5013D00E2BF4D1BDF8043041F20202934287
S214003E6029D19DF8113063F01F038DF811302A46D2
S214003E706946304615F0A2FBE2E79DF809309DF84A
S214003E80084004EB0324A4B22046FFF79FFE70B15F
S214003E90204A418813780B44DBB21F491370B1F8EF
S214003EA0031020468B4288BF1170FFF771FE00207A
S214003EB003F0C6FEC4E723F0020340F63142934205
S214003EC004BF00238DF80630D1E7022BB8D1134B80
S214003ED01B78002BB4D0104B1B889D4215DCBDF818
S214003EE00100FFF773FE10B1438801334380094A8F
S214003EF014782CB1631EDBB21370002BD7D10124CB
S214003F00012003F09DFE002C9AD14FF0FF3042B006
S214003F1070BD00BF88160020581700209416002099
S214003F2008B5FFF7E9FDBDE8084000F02FB800002F
S214003F3013B5074C2068428A01A95208FFF7A7FD6F
S214003F4020680199FFF7C3FD012002B010BD00BF35
S214003F50E817002037B50A4CC0680025694600956A
S214003F60FCF742FE2A4601A92068FFF790FDDDE92E
S214003F7000312068C91AFFF7AAFD03B030BD00BFA4
S214003F80E817002008460BF0A9BA000070B5184CD8
S214003F90184E86B000212046FFF72AFD3460FCF755
S214003FA003FA154B1860154A4FF4805111603068BB
S214003FB01D68448A640822460021FFF768FD3368BE
S214003FC00F491A6802940023CDE9033105930123B3
S214003FD001932B681C3300936969E8681319FCF792
S214003FE081FD0848052106B0BDE87040FFF75CB8C3
S214003FF04C110020E8170020E417002000E100E044
S214004000313F000000000140054B1A6C510702D5F5
S21400401004229A6470471207FCD50822F9E700BF0D
S214004020000001407047000037B504460191FEF7D6
S214004030D4F9084B05461868FFF78CFF2846FEF7AC
S214004040D2F9054B019A18682146FFF7E4FC03B045
S21400405030BD00BFE4170020E817002010B5FEF7BB
S214004060BCF9064B04461868FFF774FF2046FEF7B7
S214004070BAF9034B1868FFF7C1FC10BDE41700201F
S214004080E817002037B504460191FEF7A6F9054665
S2140040900648074B019A00682146FDF729FC0446AE
S2140040A02846FEF7A0F9204603B030BDE4170020EE
S2140040B0853F00002DE9F04F502ABFB006468846DF
S2140040C0154600F2B08022AF70220021384615F067
S2140040D09DFA0DA800F071FB002430232A464146C5
S2140040E028A88DF89F308DF898408DF899408DF867
S2140040F09A408DF89B5015F061FA3EAB2B44802217
S21400410003F8582C05AB984603F8014B0134202CD5
S214004110FAD14FF4807241460DA800F058FB0446D1
S214004120002864D1193581461022002101A815F017
S2140041306DFAAB46BA4601AA0AF1FF330AF10F0040
S214004140117813F8014F6140984202F8011BF7D12D
S21400415001ABBBF1100F1A464FF001010DA894BF3A
S214004160ABEB0B0BABF1100B00F04FFB0AF1100A98
S214004170044600283BD1BBF1000FDCD116AB01ACE6
S21400418009EB0302234603CB4345106051601C46EF
S21400419002F10802F6D19DF88B3009F110090133BF
S2140041A0B9F1300F8DF88B30BED14FF4807216A95E
S2140041B00DA800F00CFB0446C8B906F130093546D8
S2140041C01EAB1A4601210DA800F01FFB044670B96D
S2140041D00DF1780C2A46634603CBBB421060516053
S2140041E09C4602F10802F6D11035A945E8D10DA883
S2140041F000F0E7FA7021384600F0B4FA302116A82D
S21400420000F0B0FA2021404600F0ACFA102101A8D8
S21400421000F0A8FA1CB13021304600F0A3FA204680
S2140042203FB0BDE8F08F6FF03704F8E72DE9F043B4
S2140042308DB004460E4630220021684615F0E6F999
S214004240002704F12009E8460DEB070304F10F01EF
S2140042500A780132D2B2084601F801290AB9A0420A
S214004260F6D122460121484600F0CFFA054600BBAB
S2140042701037302FE7D1731E2F3698F8002013F82A
S214004280011F4A40B34208F8012BF6D14FF4807262
S2140042906946484600F09BFA054650B908AA0CAE97
S2140042A0134603CBB342206061601A4604F108044B
S2140042B0F6D16846302100F055FA28460DB0BDE824
S2140042C0F0832DE9F0418469502C94B00546884669
S2140042D017461E4643D8C4F15003B3423FD3C6F137
S2140042E050031B1B93423AD350220021684615F018
S2140042F08DF96B6CA86C22466946984728B16FF01A
S2140043003304204614B0BDE8F081AC6946B16B6C4E
S214004310A86C32460DEB040198470028EFD13444D0
S214004320B8F1000F07D037B10DEB04003A4641460E
S21400433015F044F93C44224669466846FFF7BAFE43
S214004340044638B969462846FFF770FF044608B9A0
S21400435001232B615021684600F004FAD1E76FF084
S2140043603704CEE710B54C220446002115F04EF96E
S2140043704FF0FF33236142F21073E36110BD10B5B6
S214004380044660B1203000F01CFA4C21204600F0B4
S214004390E9F942F21073E3614FF0FF33236110BD79
S2140043A00023FFF78EBF2DE9F0414FF020088AB0BA
S2140043B005460F4614460021424602A81E4615F042
S2140043C025F905EB0800019000F0F7F9AB690198B4
S2140043D0C5E911740BB9C5F818802C69002C05DAEC
S2140043E0AC692F2C9ABF0134640800244FF4807205
S2140043F002A900F0ECF928B9109A2346314628465F
S214004400FFF75FFF0AB0BDE8F0812DE9F04190B0FC
S214004410B2F5806FDDF8588005460F4616461C46F6
S2140044205ED8B8F5807F5ED83022002104A815F04B
S214004430EDF82A69EB699A4201DC6B699BB121466B
S21400444042462846FFF7ACFF044628BB05F1200885
S21400445036BB04A92846FFF7E9FE0446A0B92B6937
S21400446001332B6110E0B8F1000FEFD02146424631
S21400447004A8FFF71FFE044630B904A92846FFF734
S214004480D5FE04460028E1D0302104A800F06AF9E1
S2140044901021684600F066F9204610B0BDE8F081AD
S2140044A005F10F0213780133DBB2114602F8013929
S2140044B00BB9A942F6D16B462A460121404600F0C8
S2140044C0A4F904460028DFD1102E344628BF102455
S2140044D038462246694615F071F82744361BB7E77A
S2140044E06FF03504D8E76FF03704D5E707B500233B
S2140044F00093FFF78AFF03B05DF804FB2DE9F04157
S214004500202B8AB080460E4617461D4609D9002342
S21400451002AA2946384600F02FF9044600BB02AF2F
S21400452020258DF8046046468DF8055056F8041B85
S21400453081B10123C8F80030022201A9304600F0FC
S214004540DBF9044660B92A463946304600F0D4F90D
S214004550044605E0304600F0BDF904460028E8D0E1
S21400456002A8202100F0FEF820460AB0BDE8F0813F
S2140045702DE9F0430026A3B007460546B0466FF087
S2140045803B04B1463B6F98450BDB002E08BF6FF02F
S2140045903C0402A8802100F0E5F8204623B0BDE8E0
S2140045A0F083D5F884306C6FA86FCDF80490012B9B
S2140045B04FF0800201AB02A908BF0126A0470446BF
S2140045C00028E6D1019B5BB102AA5FFA88F1384663
S2140045D0FFF794FF0028E1D1EB6F019A1344EB67D5
S2140045E008F101081435CDE70368013310B5044619
S2140045F00CD0043000F06BF900232367282104F167
S214004600740000F0AFF84FF0FF33236010BD30B5F4
S214004610056F012D0DDC142404FB05040135C4F8D8
S2140046208030039BC4F88430C4E91D12056700205F
S21400463030BD6FF03D00FBE737B500250446294640
S21400464005672822743014F0E1FF204640F8045B2A
S21400465000F03BF901230093034920232A46204615
S214004660FFF7D5FF03B030BD1F4900002DE9F0412C
S214004670202A88B080460F4616466FD84FF48175BC
S214004680013D65D0D8F87030002B64D04046FFF767
S2140046906FFF0446002840D1D8F870E00246434633
S2140046A00120A64541DC0028EAD01F2AE8D92022AE
S2140046B00021684608F1040514F0A8FF694628465C
S2140046C000F021F9044640BB284600F000F92846D1
S2140046D000F0FBF82146284600F0FCF80446E0B956
S2140046E020226946284600F007F90446A8B9034682
S2140046F06A462021684600F03FF8044668B9D8F8B4
S21400470070200346142108F17C0025469A4219DCE5
S21400471032466946384614F051FF2021684600F0BC
S21400472021F8204608B0BDE8F081D3E91FC18C45CA
S21400473038BF0020D3F88410012908BF6244013432
S2140047401433AEE701FB03FC013340F80C50DDE701
S2140047506FF03B04E1E76FF03F04DEE76FF03B04E9
S214004760DFE700000A4619B1024B00211B68184714
S214004770704700BF60110020F0B59FB0064603A842
S2140047800F461546019300F0A0F8019903A800F023
S214004790A1F8044658B93A46314603A800F0ACF8EA
S2140047A0044620B9294603A800F0ADF8044603A83D
S2140047B000F08DF820461FB0F0BD2422002114F032
S2140047C025BF18B12422002114F020BF704770B511
S2140047D015460E4624220021044614F017FFC02D6D
S2140047E00DD0B5F5807F01D0802D0BD12046EA088C
S2140047F040F8045B314614F0E1FE002070BD6FF017
S2140048007100FBE76FF01F00F8E72DE9F0471F4641
S2140048100368802B05460E46914602D0B3F5807F8E
S21400482034D100F087FA0023436003600446FDF7A6
S214004830CDFD2946804651F8043B802B0CBF08224C
S2140048401022204604F1800AFDF78EFE49465046A7
S214004850FDF71AFE4046FDF7BDFD012E0CBF0523F1
S2140048600623A360256915F00205FBD1FDF7AEFD12
S214004870394606465046FDF726FE3046FDF7AAFDA9
S214004880204600F061FA2846BDE8F0876FF0710018
S214004890FAE710F1860F12D010F1850F0ADA10F140
S2140048A0930F0FD010F1870F14BF4FF0FF306FF04B
S2140048B073007047003818BF0120404270476FF001
S2140048C0710070476FF06F00704700F0E9BB00F0B2
S2140048D0E7BB000008B5064A064B002914BF114680
S2140048E0194600F0C7FABDE80840FFF7D2BF00BF80
S2140048F0080000020900000208B500F0EFFABDE863
S2140049000840FFF7C6BF07B500230193202201AB7E
S21400491000F062FB03B05DF804EBFFF7BABF7FB5AB
S214004920064603A801911D461446FEF719FB9DF89E
S2140049300D300199012B11D19DF80C30022B0DD8AA
S2140049404FF6FF72A24228BF224692B24FF0FF30C7
S2140049500EF09AFC2860002004B070BD2B4622465C
S214004960304600F0A3FC002818BF6FF03B00F3E7CA
S214004970704700002DE9F74F0F9D0190F520164671
S21400498095F800B0DDF8309088469A4600F0F6F9C3
S214004990002304460360082243600E9904F1800752
S2140049A0FDF7E2FD29463846FDF76CFD0BF0070BD8
S2140049B02A780BF1010B002302F00702CBF110005E
S2140049C019462A7028445A4614F020FE294604F157
S2140049D08400FDF757FD0523A360109BF34200F00B
S2140049E08E80102B12D08EB1C3F11002B24228BFB7
S2140049F032460F3341462B4408EB020011F801CB38
S214004A0003F801CF8842F9D19044B61A05F1100197
S214004A1004F18C00FDF736FD5923A3600523A3603F
S214004A204623A360CEB1002326636363544B2365FD
S214004A3001236365B0440F2EA8EB060159D8002366
S214004A40C5E90033C5E90233CA5CEA540133B34210
S214004A50FAD329463846FDF715FD0D9B2363002340
S214004A606363019B002B4DD0464B2365464B636525
S214004A70464BA365464BE3650123DDF83480236689
S214004A800026B8F1000F21D0B8F10F0F4CD8C5E9B9
S214004A900066C5E9026600231AF80320EA540133CB
S214004AA09845F9D129463846FDF7ECFC29463846A4
S214004AB0FDF707FDB9F1000F06D00023EA5C09F800
S214004AC0032001339845F9D14FF0000829463846AF
S214004AD0FDF7F7FC204600F05BF9019B002B45D163
S214004AE01846129A904243D1002B18BF4FF02C085C
S214004AF038E03846FDF7C8FC103E9CD1ADE74623AB
S214004B00A360AAE7234B236503F1BC4303F52623E2
S214004B1003F64D43636503F12243A3F5C053A36533
S214004B201D4BE3651D4BA8E751463846FDF7ACFC28
S214004B30A8F110080AF1100AB9F1000F06D049468C
S214004B403846FDF7C0FC09F110099AE729463846B1
S214004B50FDF7B7FC95E71199EA5CCA540133129A3F
S214004B609342F8D1404603B0BDE8F08F0023F6E745
S214004B7011992A5C095C4A4013430130B1E700BF33
S214004B8070590546F870455905460348055163FBBC
S214004B9004480559F803480546FB04480559010032
S214004BA0F0B591B01546169C49228DF8202004F1E8
S214004BB00C060DF1210254F8047B42F8047BB44243
S214004BC0F9D1247814704FF48074ADF830409DF815
S214004BD05C408DF8324004240694189C05941024FA
S214004BE00022049408ACCDE90234CDE900150B464A
S214004BF01146CDE90D228DF82E208DF82F508DF818
S214004C0033200F92FFF7B6FE11B0F0BD1FB5079C1C
S214004C1002949DF81840CDE9003413460A46014632
S214004C200020FFF7BDFF04B010BD1FB5079C02941F
S214004C309DF81840CDE9003413460A460146012087
S214004C40FFF7AEFF04B010BDF7B50546B020174617
S214004C5001911E4600F092F8802F4FF0000343604B
S214004C600CBF08221022019903600446FDF77CFC65
S214004C701DB90523A3608C23A36004F18000314690
S214004C800190FDF701FC019855B105230899A36032
S214004C90FDF719FC204600F07BF8002003B0F0BDBD
S214004CA00623F3E72DE9FF478046B02089461746DE
S214004CB01E46DDF830A000F061F80546B9F1800F19
S214004CC04FF0000343600CBF0822102245F8843BD7
S214004CD041460446FDF748FC0EB331462846FDF72C
S214004CE0D3FB4823A3600523A3600323394604F1BE
S214004CF0A000A360FDF7C8FB0D9904F18000FDF746
S214004D00E2FBBAF1000F03D051462846FDF7DBFB65
S214004D10204600F03DF8002004B0BDE8F08731469C
S214004D201022684614F072FC69462846FDF7AAFB76
S214004D30D7E70000024B03480122C3F8002670475D
S214004D400010C84300000F40094B98420ED003F5F0
S214004D508063984209D10122064B03EBC2035A68CE
S214004D60054B13449B0000221A6070470022F3E7AD
S214004D7000000F4020A501008005F210024B0348FA
S214004D800122C3F8002670470010C84300000F40F9
S214004D90044B984203D003F58063984201D1FFF795
S214004DA0D3BF704700000F402DE9F04788B0074694
S214004DB0884615461E46FFF7BDFF044607F17E40AF
S214004DC0083801284FD80423236000236360E36477
S214004DD0626822F44062626023636A466363A8F1F5
S214004DE0040308F11C0853F8040F00BA434542F8C0
S214004DF0040BF8D1FDF7EAFA6946074604F5827017
S214004E00FDF77EFB3846FDF7E5FA184B2365109B49
S214004E10DFF85C9005EB831704F5D27AFDF7D6FA37
S214004E20294680465046FDF77BFB40354046FDF759
S214004E30D1FAAF42C4F85090F0D1FDF7C7FA314628
S214004E40054604F58070FDF763FB2846FDF7C2FAB9
S214004E502046FFF779FF331F1C3653F8042F12BA8B
S214004E60B3421A60F9D108B0BDE8F087888AC80155
S214004E70070D810138B50D46044630B36C2200217B
S214004E8014F0C4FB124B9D4205D001339D4210D056
S214004E906FF0850038BD0F4B04F10C0203F12001C2
S214004EA053F8040B42F8040B8B42F9D1256000201E
S214004EB0F0E7094B04F10C0203F1200153F8040B50
S214004EC042F8040B8B42F9D1F0E76FF08600E1E779
S214004ED00800000230A5010051A501002DE9F04FA1
S214004EE00E4685B01446054600286CD009B9002A3F
S214004EF069D12B6803F17E43083B012B66D81CB9A9
S214004F00002005B0BDE8F08F6B6803F03F08E3189B
S214004F106B6022BFAB680133AB60B8F1000F58D0AE
S214004F20C8F140094C4554D305F12C0731464A4692
S214004F3007EB080014F042FB0122009205F10C0377
S214004F40403C444428683A461946FFF72DFF3F2C5C
S214004F504E444FF0000811D9B1074FEA9412374675
S214004F6005F10C0314D10092286832461946FFF763
S214004F701BFF24F03F031E4404F03F04002CBFD068
S214004F8005F12C0022463146404414F017FBB7E7E3
S214004F9006EB821905F12C0B4FF0010A5A4607F171
S214004FA0400157F8040B42F8040B8F42F9D1CDF8B4
S214004FB000A01946286803935A46FFF7F5FEB94540
S214004FC0039BEBD1D5E76FF086009AE76FF0880079
S214004FD097E73F2CC0D8D3E72DE9F3410E461F468E
S214004FE0054608B11BB922B16FF0860447E00029D8
S214004FF0F9D02B6828498B4245D001318B4245D1E8
S2140050004FF02008904544D86A68D3008DF80730E2
S21400501053098DF80630530B8DF80530530D8DF877
S2140050200430AB68D90001EB52718DF8031002F022
S2140050303F025909372A8DF802104FEA53318DF88E
S21400504001104FEA535315498DF8003094BFC2F152
S2140050503802C2F178022846FFF740FF044670B9CE
S214005060082269462846FFF739FF044638B9C7F8CC
S2140050700080424605F10C01304614F09FFA2046A7
S21400508002B0BDE8F0814FF01C08BBE76FF0880463
S214005090F5E76FF08904F2E70800000272A5010048
S2140050A008B518B16C22002114F0B0FA002008BD33
S2140050B070B5114C114E0A25236843F4807223F410
S2140050C08073226030462360FCF72AFE0023800AA5
S2140050D062680AB983420AD1636853B9013DEBD1CD
S2140050E0236823F0010323606FF0920070BD013344
S2140050F0EEE70020FAE700BF00D001407000020093
S2140051002DE9F04F85B0CDE90012654A654DD2F81D
S214005110C03043F40043C2F8C0302B688046D8073E
S21400512019D50024DDF800A05E4D4746A3464FF093
S2140051300A09BAF1000F2DD14CB114F1940F06D024
S21400514052460021404614F061FA4FF0000B019BD6
S214005150C3F800B01AE040F271632B60FFF7A8FFB7
S214005160044698B96B68032BFCD9D5F800312B613F
S214005170D5F800316B61D5F80031AB61D5F8003158
S214005180EB61FFF795FF04460028CAD0204605B01D
S214005190BDE8F08F6C68A40005D02E6B16F45C7F1B
S2140051A012D1002436E04048FCF7BAFDC00A84421B
S2140051B005D16B68002BF0D16FF09304C7E76B68DE
S2140051C0002BF6D10134F2E7F10515D526F48076EA
S2140051D02E636B685BB9B9F1010BEDD0DDF800A06A
S2140051E047466FF093040020D9468346A1E7D5F8DA
S2140051F000310393039BECE7FFF75AFF044618B908
S21400520016F41C7FCDD0E6E710F1930F98D010F17E
S214005210940FE0D06B6868689B00534528BF5346E0
S214005220BA0738463AD123F0030C9E08BC4484459E
S21400523014D16FF0030C0CFB063646B1D5F80021EE
S214005240064400F8012BB0424FEA1222F9D10BEBCC
S21400525003001F44AAEB030ACB46C5E7D5F8002196
S21400526040F8042BE3E7D5F8006100F8046C4FEA39
S214005270162E00F803EC4FEA164E360E00F802EC37
S21400528000F8016CACF1040CBCF1030F00F1040053
S214005290E9D823F003009E083844CAE79C46F3E7A3
S2140052A000400E4000D00140700002002DE9F041A1
S2140052B01C46002388461646236005272568224696
S2140052C0711B08EB0500FFF71BFF23681D44B54262
S2140052D028BF0020013F256001D00028EED1BDE8A0
S2140052E0F08150E8003F0B4340E80032002AF8D136
S2140052F07047CB6918477047704700207047704763
S2140053004FF000007047002070470020704770473D
S214005310002070470020704770470020704700202C
S214005320704700207047002070470020704700201C
S21400533070470020704700207047002070471120FB
S214005340704700207047704784B001A880E80E00C0
S21400535004B070477047704708B505F001FB034B73
S2140053601B680BB101F0F4F808BD00BF2C18002034
S2140053707FB50C461949054608684968134602AACF
S21400538003C295F82A2010326A4412F8086C95F881
S2140053904420D20608D422463146284601F032F987
S2140053A000F5FA7004B070BD2046019314F0D9FDE4
S2140053B095F84420019B00F10A0412F0030F4FEA0F
S2140053C0C40405D0184614F0CCFD04F50C7404444F
S2140053D0701EE823584304FB0600E1E7B2A501006F
S2140053E038B50446FCF7F9FFD4E90C12054620460A
S2140053F0FFF7BEFFA28CE0600346E08C801A40F206
S214005400712202FB003303F59C53083323612846C0
S214005410BDE83840FCF7E7BF014B9868704700BF0F
S2140054202C180020F0B5104B1E6893F804C00246F6
S21400543035464FF0FF3400239C4508DC91B1631CD1
S21400544010D08C2303FB046080F84520F0BD95F84F
S214005450457097422846F9D0FF2F08BF1C468C356A
S2140054600133E9E70020F1E72C18002070B5214D44
S214005470044600283CD0083004F0EAFC0026FF234F
S21400548084F8453004F13000E66114F07DFB04F149
S214005490340014F079FB04F1380014F075FB04F1C5
S2140054A03C0014F071FB2868134B201A80105843F8
S2140054B0C0B2FFF738FF01463046FFF72DFF206CDD
S2140054C010B103F097F92664206E18B101F05BFF67
S2140054D000232366606EFFF73DFF70BD286806FB5D
S2140054E00400FFF7C3FF01342B79A342F6DCF4E790
S2140054F08C26F9E72C1800208BAFF88A08B52030E8
S214005500FFF7EFFEBDE808404FF080500DF01EB8E4
S214005510F7B504460BF0A3FFC0F30F23542B43D973
S214005520AA2B34BF01230223C0B27F2834BF012236
S214005530022203218DF804301344B3FBF1F000EB94
S21400554040001B1A8DF805301344B3FBF1F202EB52
S21400555042029B1A15498DF80630002381F8413027
S21400556001AF18461D461A4617F8016B44FA06FCAA
S2140055701CF0010F06D053009E4030430132C0B2EB
S214005580D2B201230135EDB2032DEDD10BB181F876
S214005590410091F8413043EA8212FF2381F841200E
S2140055A081F8403003B0F0BD0023BDE72C18002082
S2140055B038B52D4991F8402091F841300132D2B2E9
S2140055C0B2EB931F044681F8402004D3032381F8EE
S2140055D04030002038BD016A09033CD590F87A3087
S2140055E00322243B93FBF2F202EB42029B1A253382
S2140055F0DBB284F87A3004F16C0502F07AF950B127
S21400560094F84430DB062CD494F87A0002F074F94F
S21400561080F00100C0B2B4F95A1000F001000CF09E
S21400562023FE0CF07FFEB4F97420824204D0A4F866
S21400563074000CF001FD688128460CF063FA002225
S21400564011461046FFF757FE94F87A00002102F044
S2140056504FF90120BEE75200134103F00303253340
S214005660C7E70020D7E700BF2C18002037B5044650
S2140056700830019104F0ECFB204601990BF098FDF0
S214005680206C0025E56110B103F0B4F8256404F140
S2140056904C0003B0BDE8304014F076BA38B5044686
S2140056A019B390F828208AB190F829300133DBB27C
S2140056B09A4280F8293009D10121FFF7D7FF4FF031
S2140056C080712046BDE83840FFF718BF236A1A04E9
S2140056D00BD5E36A62689B1A002B06DA0121204686
S2140056E0FFF7C4FF4FF08061EBE7236A5B0426D424
S2140056F00BF0B5FE1123B0FBF3F303EB0313C01A54
S21400570094F9593085B213FA80F0102888BFC5F195
S21400571010056DB2083B2B4484F859302046012111
S2140057200BF046FDA38C1D44636840F2712202FB19
S214005730053363602046BDE838400BF0EBBC00251F
S214005740ECE7000038B5436923F010034361B0F876
S2140057505C3004462BB9836813F4601F08BFA0F8BA
S2140057605C30236A13F0100518D003F00303144AC4
S214005770002B08BF0025134B1CBF01251346E36111
S2140057802046FFF715FF58B16800617E0CF01AFB43
S2140057900D4B9868BDE838400CF0A0BA094BEEE710
S2140057A00A4B617E1A68D37A92780B449342D8BF2C
S2140057B0DAB2627620460121BDE83840FFF76EBFB8
S2140057C09D620000596200002C180020701A00200C
S2140057D0014B1879704700BF2C1800202DE9F84FB0
S2140057E004460E46E1699DF828B09DF82C809DF889
S2140057F038A09DF840009DF850701D4691469DF8D3
S2140058004830002940F09B80EA0600F18B8005F0C6
S2140058100301032908BF05F0FD0505F0F705A906F5
S214005820BDF83C10A4F85A1048BF05F0FC0547F632
S214005830FF718207A4F8741077D410F0040F0CBF21
S2140058400120032094F87B1060F3030184F87B109A
S214005850980747F6FF71A4F8841068D413F0040F75
S2140058600CBF0121032194F88B30206E61F30303F3
S21400587084F88B3001F04FFE236A23F4954323F01F
S2140058807F03002F55D12907236206D5236A4FF0E0
S214005890060943F4042323624E46236A6A0723F468
S2140058A0405323620CD41AF0010F1CBF43F48053FC
S2140058B023621AF0020F1EBF236A43F400532362CA
S2140058C0236A84F844501D43BBF1000F34D125628F
